:100000000C942A000C9434000C9434000C943400AA
:100010000C9434000C9434000C9434000C94340090
:100020000C9434000C9434000C9434000C94340080
:100030000C9434000C9434000C9434000C94340070
:100040000C9434000C9434000C9434000C94340060
:100050000C94340011241FBECFE5D8E0DEBFCDBF25
:100060000E9436000C9449000C94000087B3816014
:1000700087BB81E088BB98B381E0892788BB2FE5E7
:100080008AEE90E0215080409040E1F700C00000EF
:06009000F2CFF894FFCF4F
:00000001FF
