:100000000C942A000C9434000C9434000C943400AA
:100010000C9434000C9434000C9434000C94340090
:100020000C9434000C9434000C9434000C94340080
:100030000C9434000C9434000C9434000C94340070
:100040000C9434000C9434000C9434000C94340060
:100050000C94340011241FBECFE5D8E0DEBFCDBF25
:100060000E9436000C945A000C94000087B3816003
:1000700087BB87B3846087BB87B38D7F87BB88B31B
:10008000826088BBB19908C088B38E7F88BB98B363
:1000900084E0892788BB07C088B38B7F88BB98B36F
:1000A00081E0892788BB87EA91E60197F1F700C0D4
:0800B0000000E8CFF894FFCF37
:00000001FF
