S01300004C43445F50726F6772616D2E7372656307
S11300000C942A000C943F000C943F000C943F0085
S11300100C943F000C943F000C943F000C943F0060
S11300200C943F000C943F000C943F000C943F0050
S11300300C943F000C943F000C943F000C943F0040
S11300400C943F000C943F000C943F000C943F0030
S11300500C943F0011241FBECFE5D8E0DEBFCDBF16
S113006010E0A0E6B0E0E2E6F1E002C005900D92F7
S1130070A238B107D9F70E9483000C94AF000C9406
S1130080000082B3816082BB0000000082B38E7FD7
S113009082BB089517BA82B3826082BB82B38B7F1E
S11300A082BB02C00E944100C799FCCF8FEF87BB7F
S11300B00895CF93C82F0E944A00C8BB82B3897F9A
S11300C082BB0E94410018BACF910895CF93C82FE4
S11300D00E944A00C8BB82B38D7F82BB82B3846016
S11300E082BB0E94410018BACF910895CF93DF9349
S11300F0EC0103C021960E94660088818111FACF29
S1130100DF91CF91089581B3876081BB85EA9EE03A
S11301100197F1F700C0000081E00E94590083EFCD
S113012091E00197F1F700C0000088E30E945900B4
S113013090E19A95F1F700C08EE00E94590080E1A9
S11301408A95F1F700C080E690E00E94760080EC8A
S11301500E94590081E790E00E947600FFCFF89456
S1050160FFCFCB
S11301624D6572727920584D617320616E6420610D
S1130172004861707079204E65772059656172215B
S1050182000077
S9030000FC
