:100000000C942A000C9447000C9447000C94470071
:100010000C9447000C9447000C9447000C94490042
:100020000C9447000C9447000C9447000C94470034
:100030000C9447000C9447000C9447000C94470024
:100040000C9447000C9447000C9447000C94470014
:100050000C94470011241FBECFE5D8E0DEBFCDBF12
:1000600010E0A0E6B0E0E2E1F3E002C005900D92FE
:10007000A837B107D9F720E0A8E7B0E001C01D928A
:10008000A937B207E1F70E949A000C9487010C94FB
:1000900000001F920F920FB60F9211248F9381E0F0
:1000A000809378008F910F900FBE0F901F9018953E
:1000B00082B3816082BB0000000082B38E7F82BB6E
:1000C000089517BA82B3826082BB82B38B7F82BBF2
:1000D00002C00E945800C799FCCF8FEF87BB0895DC
:1000E000CF93C82F0E946100C8BB82B3897F82BBB7
:1000F0000E94580018BACF910895CF93C82F0E943C
:100100006100C8BB82B38D7F82BB82B3846082BB37
:100110000E94580018BACF910895CF93DF93EC0155
:1001200003C021960E947D0088818111FACFDF9162
:10013000CF910895CF93DF9300D0CDB7DEB781B3D1
:10014000876081BB85EA9EE00197F1F700C000005F
:10015000789481E00E94700083EF91E00197F1F7BD
:1001600000C0000088E30E94700090E19A95F1F7CA
:1001700000C08EE00E94700080E18A95F1F700C017
:100180008EB58B608EBD89B7806189BF88E09DE3A5
:100190009BBD8ABD80E690E00E948D0086EC0E94A7
:1001A00070008FE690E00E948D00F12C00E010E0DE
:1001B000809178008130E1F7109278001F5F1C3346
:1001C000E8F44AE0BE016F5F7F4F812F90E00E940C
:1001D00052011A3058F48CEC0E94700080E30E94A7
:1001E0007D00CE0101960E948D00E2CF8CEC0E9432
:1001F0007000CE0101960E948D00DACF8CEC0E9437
:10020000700080E30E947D0080E30E947D000F5F0C
:100210000B33F8F44AE0BE016F5F7F4F802F90E010
:100220000E9452010A3060F489EC0E94700080E361
:100230000E947D00CE0101960E948D0010E0B8CF93
:1002400089EC0E947000CE0101960E948D0010E0A2
:10025000AFCF89EC0E94700080E30E947D0080E3B4
:100260000E947D00F3944AE0BE016F5F7F4F8F2DA7
:1002700090E00E94520199E09F1550F087EC0E9497
:100280007000CE0101960E948D0000E010E090CF3A
:1002900086EC0E947000CE0101960E948D0000E065
:1002A00010E086CFBB274A3031F4992322F4BDE217
:1002B000909581959F4F0C945E01BB27FB015527BC
:1002C000AA27880F991FAA1FA41710F0A41B8395B3
:1002D0005051B9F7A05DAA3308F0A95DA19300972A
:1002E00079F7B111B1931192CB010C947701DC0134
:1002F000FC01672F71917723E1F7329704C07C915D
:100300006D9370836291AE17BF07C8F30895F89498
:02031000FFCF1D
:1003120054494D45522048483A4D4D3A53530030C6
:08032200303A30303A3030006F
:00000001FF
